:020000040800F2
:10400000FFFF0120F9A70008D3810008D58100082F
:104010002583000869830008AD83000800000000C4
:10402000000000000000000000000000F56A000829
:10403000F183000800000000896B0008CF810008B0
:104040003DA800083DA800083DA800083DA80008BC
:104050003DA800083DA800086380000873800008A0
:104060008380000893800008A180000835D30008F1
:104070003DA8000859D300083DA800083DA8000845
:10408000F38300083DA800083DA800083DA80008EB
:104090003DA800083DA800083DA80008B980000818
:1040A0003DA800083DA800083DA800083DA800085C
:1040B0003DA800083DA800083DA8000829D3000835
:1040C0001DD300083DA800083DA800083DA8000831
:1040D0003DA800083DA800083DA800082DDD000807
:1040E000338100083DA800083DA800083DA800084D
:1040F0003DA80008F5DE00083DA800083DA800081E
:104100003DA800083DA800083DA800083DA80008FB
:104110003DA800083DA800083DA80008C9F5000812
:104120002D1701083DA800083DA800083DA800087B
:104130003DA800083DA800083DA800083DA80008CB
:104140003DA800083DA800083DA80008F5B40008F7
:10415000C11601083DA80008F9DB0008F5DB0008DE
:104160004DD3000841D300083DA800083DA8000831
:104170003DA800083DA800083DA800083DA800088B
:084180003DA800083DA800085D
:1041880081F0004102E000BF83F0004330B54FEA00
:1041980041044FEA430594EA050F08BF90EA020F6D
:1041A8001FBF54EA000C55EA020C7FEA645C7FEA00
:1041B800655C00F0E2804FEA5454D4EB5555B8BF23
:1041C8006D420CDD2C4480EA020281EA030382EA94
:1041D800000083EA010180EA020281EA0303362D26
:1041E80088BF30BD11F0004F4FEA01314FF4801CF9
:1041F8004CEA113102D0404261EB410113F0004F0B
:104208004FEA03334CEA133302D0524263EB4303C1
:1042180094EA050F00F0A780A4F10104D5F1200E5F
:104228000DDB02FA0EFC22FA05F2801841F10001BA
:1042380003FA0EF2801843FA05F359410EE0A5F18E
:1042480020050EF1200E012A03FA0EFC28BF4CF0BF
:10425800020C43FA05F3C01851EBE37101F0004575
:1042680007D54FF0000EDCF1000C7EEB00006EEB82
:104278000101B1F5801F1BD3B1F5001F0CD349080C
:104288005FEA30004FEA3C0C04F101044FEA445263
:1042980012F5800F80F09A80BCF1004F08BF5FEAEA
:1042A800500C50F1000041EB045141EA050130BDCA
:1042B8005FEA4C0C404141EB010111F4801FA4F16D
:1042C8000104E9D191F0000F04BF01460020B1FAC2
:1042D80081F308BF2033A3F10B03B3F120020CDAFA
:1042E8000C3208DD02F1140CC2F10C0201FA0CF0D8
:1042F80021FA02F10CE002F11402D8BFC2F1200C3D
:1043080001FA02F120FA0CFCDCBF41EA0C019040F2
:10431800E41AA2BF01EB0451294330BD6FEA04043B
:104328001F3C1CDA0C340EDC04F11404C4F1200226
:1043380020FA04F001FA02F340EA030021FA04F338
:1043480045EA030130BDC4F10C04C4F1200220FA8F
:1043580002F001FA04F340EA0300294630BD21FACD
:1043680004F0294630BD94F0000F83F4801306BF93
:1043780081F480110134013D4EE77FEA645C18BF87
:104388007FEA655C29D094EA050F08BF90EA020F1E
:1043980005D054EA000C04BF1946104630BD91EA16
:1043A800030F1EBF0021002030BD5FEA545C05D119
:1043B8004000494128BF41F0004130BD14F5800458
:1043C8003CBF01F5801130BD01F0004545F0FE41CC
:1043D80041F470014FF0000030BD7FEA645C1ABF01
:1043E800194610467FEA655C1CBF0B46024650EA38
:1043F800013406BF52EA033591EA030F41F4002164
:1044080030BD00BF90F0000F04BF0021704730B5E9
:104418004FF4806404F132044FF000054FF00001BE
:1044280050E700BF90F0000F04BF0021704730B57F
:104438004FF4806404F1320410F0004548BF404254
:104448004FF000013EE700BF42004FEAE2014FEAA9
:1044580031014FEA02701FBF12F07F4393F07F4F84
:1044680081F06051704732F07F4208BF704793F087
:104478007F4F04BF41F40021704730B54FF460749A
:1044880001F0004521F000411CE700BF50EA01029D
:1044980008BF704730B54FF000050AE050EA010246
:1044A80008BF704730B511F0004502D5404261EBB6
:1044B80041014FF4806404F132045FEA915C3FF4F7
:1044C800D8AE4FF003025FEADC0C18BF03325FEA94
:1044D800DC0C18BF033202EBDC02C2F1200300FA45
:1044E80003FC20FA02F001FA03FE40EA0E0021FA6A
:1044F80002F11444BDE600BF70B54FF0FF0C4CF458
:10450800E06C1CEA11541DBF1CEA135594EA0C0F09
:1045180095EA0C0F00F0DEF82C4481EA030621EA44
:104528004C5123EA4C5350EA013518BF52EA03357F
:1045380041F4801143F4801338D0A0FB02CE4FF031
:104548000005E1FB02E506F00042E0FB03E54FF061
:104558000006E1FB03569CF0000F18BF4EF0010E59
:10456800A4F1FF04B6F5007F64F5407404D25FEA55
:104578004E0E6D4146EB060642EAC62141EA555108
:104588004FEAC52040EA5E504FEACE2EB4F1FD0C4A
:1045980088BFBCF5E06F1ED8BEF1004F08BF5FEAC8
:1045A800500E50F1000041EB045170BD06F000467A
:1045B80046EA010140EA020081EA0301B4EB5C0427
:1045C800C2BFD4EB0C0541EA045170BD41F480111F
:1045D8004FF0000E013C00F3AB8014F1360FDEBF44
:1045E800002001F0004170BDC4F10004203C35DA20
:1045F8000C341BDC04F11404C4F1200500FA05F3A3
:1046080020FA04F001FA05F240EA020001F0004243
:1046180021F0004110EBD37021FA04F642EB0601B9
:104628005EEA430E08BF20EAD37070BDC4F10C04E3
:10463800C4F1200500FA04F320FA05F001FA04F2A7
:1046480040EA020001F0004110EBD37041F1000193
:104658005EEA430E08BF20EAD37070BDC4F120059E
:1046680000FA05F24EEA020E20FA04F301FA05F206
:1046780043EA020321FA04F001F0004121FA04F2AE
:1046880020EA020000EBD3705EEA430E08BF20EA7E
:10469800D37070BD94F0000F0FD101F000464000B8
:1046A80041EB010111F4801F08BF013CF7D041EA3A
:1046B800060195F0000F18BF704703F0004652003E
:1046C80043EB030313F4801F08BF013DF7D043EA0F
:1046D8000603704794EA0C0F0CEA135518BF95EAC5
:1046E8000C0F0CD050EA410618BF52EA4306D1D14C
:1046F80081EA030101F000414FF0000070BD50EA6B
:10470800410606BF1046194652EA430619D094EAF4
:104718000C0F02D150EA013613D195EA0C0F05D1DE
:1047280052EA03361CBF104619460AD181EA030132
:1047380001F0004141F0FE4141F470014FF00000EA
:1047480070BD41F0FE4141F4780170BD70B54FF085
:10475800FF0C4CF4E06C1CEA11541DBF1CEA135505
:1047680094EA0C0F95EA0C0F00F0A7F8A4EB0504E7
:1047780081EA030E52EA03354FEA013100F08880DE
:104788004FEA03334FF0805545EA131343EA1263A7
:104798004FEA022245EA111545EA10654FEA00265C
:1047A8000EF000419D4208BF964244F1FD0404F515
:1047B800407402D25B084FEA3202B61A65EB030571
:1047C8005B084FEA32024FF480104FF4002CB6EB2E
:1047D800020E75EB030E22BFB61A754640EA0C00AE
:1047E8005B084FEA3202B6EB020E75EB030E22BFEE
:1047F800B61A754640EA5C005B084FEA3202B6EB2F
:10480800020E75EB030E22BFB61A754640EA9C00ED
:104818005B084FEA3202B6EB020E75EB030E22BFBD
:10482800B61A754640EADC0055EA060E18D04FEA7B
:10483800051545EA16754FEA06164FEAC30343EA1B
:1048480052734FEAC2025FEA1C1CC0D111F4801FE8
:104858000BD141EA00014FF000004FF0004CB6E7E1
:1048680011F4801F04BF01430020B4F1FD0C88BF80
:10487800BCF5E06F3FF6AFAEB5EB030C04BFB6EB8B
:10488800020C5FEA500C50F1000041EB045170BD7E
:104898000EF0004E4EEA113114EB5C04C2BFD4EBAB
:1048A8000C0541EA045170BD41F480114FF0000E2F
:1048B800013C90E645EA060E8DE60CEA135594EAAB
:1048C8000C0F08BF95EA0C0F3FF43BAF94EA0C0FAE
:1048D8000AD150EA01347FF434AF95EA0C0F7FF423
:1048E80025AF104619462CE795EA0C0F06D152EA77
:1048F80003353FF4FDAE1046194622E750EA41065B
:1049080018BF52EA43067FF4C5AE50EA41047FF46B
:104918000DAF52EA43057FF4EBAE12E74FF0FF3CD0
:1049280006E000BF4FF0010C02E000BF4FF0010CA1
:104938004DF804CD4FEA410C7FEA6C5C4FEA430C1A
:1049480018BF7FEA6C5C1BD001B050EA410C0CBF69
:1049580052EA430C91EA030F02BF90EA020F0020CB
:10496800704710F1000F91EA030F58BF994208BF32
:1049780090422CBFD8176FEAE37040F001007047EF
:104988004FEA410C7FEA6C5C02D150EA013C07D146
:104998004FEA430C7FEA6C5CD6D152EA033CD3D091
:1049A8005DF8040B704700BF8446104662468C468B
:1049B8001946634600E000BF01B5FFF7B7FF0028BE
:1049C80048BF10F1000F01BD4DF808EDFFF7F4FFE7
:1049D8000CBF012000205DF808FB00BF4DF808ED72
:1049E800FFF7EAFF34BF012000205DF808FB00BF95
:1049F8004DF808EDFFF7E0FF94BF012000205DF8B7
:104A080008FB00BF4DF808EDFFF7CEFF94BF01206B
:104A180000205DF808FB00BF4DF808EDFFF7C4FF64
:104A280034BF012000205DF808FB00BF4FEA410CAD
:104A38007FEA6C5C02D150EA013C0AD14FEA430C90
:104A48007FEA6C5C02D152EA033C02D14FF00000CD
:104A580070474FF0010070474A0011D212F500125A
:104A680011D20DD56FF47873B3EB62520ED44FEABE
:104A7800C12343F0004343EA505323FA02F070473E
:104A88004FF00000704750EA013002D14FF0FF307C
:104A980070474FF0000070474FEA4102B2F1E0431F
:104AA80024BFB3F5001CDCF1FE5C0DD901F0004C0D
:104AB8004FEAC0024CEA5070B2F1004F40EB83005D
:104AC80008BF20F00100704711F0804F21D113F189
:104AD8003872BCBF01F00040704741F480114FEAC2
:104AE8005252C2F11802C2F1200C10FA0CF320FA4B
:104AF80002F018BF40F001004FEAC1234FEAD32368
:104B080003FA0CFC40EA0C0023FA02F34FEA4303D1
:104B1800CCE77FEA625307D150EA01331EBF4FF05A
:104B2800FE4040F44000704701F0004040F0FE4075
:104B380040F40000704700BF80F0004002E000BF72
:104B480081F0004142001FBF5FEA410392EA030F70
:104B58007FEA226C7FEA236C6AD04FEA1262D2EBBA
:104B68001363C1BFD218414048404140B8BF5B42BF
:104B7800192B88BF704710F0004F40F4000020F058
:104B88007F4018BF404211F0004F41F4000121F06E
:104B98007F4118BF494292EA030F3FD0A2F10102B8
:104BA80041FA03FC10EB0C00C3F1200301FA03F1F6
:104BB80000F0004302D5494260EB4000B0F5000F19
:104BC80013D3B0F1807F06D340084FEA310102F1D8
:104BD8000102FE2A51D2B1F1004F40EBC25008BF8A
:104BE80020F0010040EA03007047490040EB000054
:104BF80010F4000FA2F10102EDD1B0FA80FCACF183
:104C0800080CB2EB0C0200FA0CF0AABF00EBC25081
:104C180052421843BCBFD0401843704792F0000F6F
:104C280081F4000106BF80F400000132013BB5E7C2
:104C38004FEA41037FEA226C18BF7FEA236C21D038
:104C480092EA030F04D092F0000F08BF084670479D
:104C580090EA010F1CBF0020704712F07F4F04D16B
:104C6800400028BF40F00040704712F100723CBF7E
:104C780000F50000704700F0004343F0FE4040F4A8
:104C8800000070477FEA226216BF08467FEA236366
:104C98000146420206BF5FEA412390EA010F40F451
:104CA800800070474FF0000304E000BF10F000439D
:104CB80048BF40425FEA000C08BF704743F0964384
:104CC80001464FF000001CE050EA010208BF70479F
:104CD8004FF000030AE000BF50EA010208BF704726
:104CE80011F0004302D5404261EB41015FEA010C3B
:104CF80002BF84460146002043F0B64308BFA3F133
:104D08008053A3F50003BCFA8CF2083AA3EBC25314
:104D180010DB01FA02FC634400FA02FCC2F1200233
:104D2800BCF1004F20FA02F243EB020008BF20F06A
:104D38000100704702F1200201FA02FCC2F12002D0
:104D480050EA4C0021FA02F243EB020008BF20EAC5
:104D5800DC7070477BB972B90029BEBF00204FF0E4
:104D6800004106E008BF00281CBF6FF000414FF06B
:104D7800FF3000F0A5B9ADF1080C6DE904CE0029AB
:104D880009DB002B1ADB00F035F8DDF804E0DDE97B
:104D9800022304B07047404261EB4101002B1BDB4A
:104DA80000F028F8DDF804E0DDE9022304B0404211
:104DB80061EB4101524263EB43037047524263EB9C
:104DC800430300F017F8DDF804E0DDE9022304B03E
:104DD800404261EB41017047524263EB430300F0EC
:104DE80009F8DDF804E0DDE9022304B0524263EB80
:104DF800430370472DE9F047089E04468846002B78
:104E08004BD18A42154667D9B2FA82F24AB1C2F149
:104E1800200701FA02F320FA07F7954047EA03084A
:104E280094404FEA154E230CB8FBFEF71FFA85FC99
:104E38000EFB178843EA084307FB0CF1994209D98E
:104E4800EB1807F1FF3080F01B81994240F218817E
:104E5800023F2B445B1AA4B2B3FBFEF00EFB1033E7
:104E680044EA034400FB0CFCA44509D92C1900F1C1
:104E7800FF3380F00781A44540F2048102382C44B6
:104E880040EA0740A4EB0C0400271EB1D4400023DD
:104E9800C6E900433946BDE8F0878B4209D9002EA0
:104EA80000F0EB800027C6E9000138463946BDE826
:104EB800F087B3FA83F7002F47D18B4202D382429F
:104EC80000F2FA80841A61EB030301209846002E51
:104ED800E0D0C6E90048DDE702B9FFDEB2FA82F2A7
:104EE800002A40F08F80491B4FEA154E1FFA85F8BB
:104EF8000127B1FBFEFC230C0EFB1C1143EA014306
:104F080008FB0CF1994207D9EB180CF1FF3002D2DB
:104F1800994200F2CD808446591AA3B2B1FBFEF043
:104F28000EFB101443EA044408FB00F8A04507D917
:104F38002C1900F1FF3302D2A04500F2B6801846C2
:104F4800A4EB080440EA0C409FE7C7F1200CBB40E3
:104F580022FA0CFE4EEA030E01FA07F420FA0CF5C9
:104F680021FA0CF34FEA1E482543B3FBF8F92C0C41
:104F780008FB19331FFA8EFA44EA034309FB0AF4C3
:104F88009C4202FA07F200FA07F10BD91EEB030361
:104F980009F1FF3080F087809C4240F28480A9F1BB
:104FA800020973441B1BADB2B3FBF8F008FB1033C6
:104FB80045EA034400FB0AFAA24508D91EEB04049B
:104FC80000F1FF336BD2A24569D90238744440EA34
:104FD8000940A0FB0289A4EB0A044C45C2464B4693
:104FE80054D351D0002E69D0B1EB0A0564EB030409
:104FF80004FA0CFCFD40FC404CEA0505C6E90054E7
:10500800002747E7C2F1200320FA03F7954001FA89
:1050180002F021FA03F34FEA154E3843010CB3FBB3
:10502800FEF71FFA85F80EFB173341EA034107FB29
:1050380008F38B4204FA02F407D9691807F1FF3C18
:105048002FD28B422DD9023F2944CB1A81B2B3FB10
:10505800FEF00EFB103341EA034100FB08F38B42DC
:1050680007D9691800F1FF3C17D28B4215D90238CD
:105078002944C91A40EA07473BE73746304609E75B
:105088000746E7E61846FBE64145ABD2B8EB020A0D
:1050980069EB0E0201381346A4E76046E9E71846B3
:1050A80095E76746D1E781467CE702382C4447E715
:1050B800ACF1020C2B442FE7384608E73746E9E6FF
:1050C800704700BF10F8012B11F8013B012A28BFD7
:1050D8009A42F7D0D01A7047034613F8012B002ADA
:1050E800FBD1181A0138704700F108034FF0FF325E
:1050F8004360C0E902230361002303607047002373
:105108000361704743684B609A688A609A68516087
:105118009960086103680133036070470A68531C8B
:1051280030B50AD103695A684A6091608B6059604A
:10513800086103680133036030BD00F108035C684F
:1051480025689542EFD82346F9E7D0E9012103699C
:105158009160D0E9011251605A68824204BF8268A6
:105168005A60002202611868013818607047000010
:10517800064A13681968064B19B94FF0FF321A60CE
:1051880070471268D268D2685268F8E7FC070020B6
:10519800BC08002010B50E4B1A6850600D4A126802
:1051A8008242044607D90C4A10681968BDE81040C5
:1051B8000431FFF7B3BF094A106819680431FFF7D3
:1051C800ADFF074B1A68A24288BF1C6010BD00BF24
:1051D800F80700200409002000080020FC07002030
:1051E800BC0800202DE9F84F0A9F0C9E88461546FA
:1051F8009B46824628B940F22D226949694805F044
:1052080029F9052F05D940F22E226549664805F08F
:1052180021F936B9A80001F03FFB0646002800F046
:10522800B1805C2001F038FB0446002800F0A7801C
:10523800AD002A460663A521304611F069FF236BAD
:10524800043D1D4425F0070508F1FF3304F134023D
:1052580008F1090813F8011F02F8011B197809B1B0
:105268009845F7D1052F4FF00008B94604F1040618
:1052780028BF4FF00509304684F83D80C4F82C90CB
:10528800C4E91298FFF73BFF04F11800FFF737FF56
:10529800C9F10603A361C4F8548024616462C4F8A8
:1052A800508084F858805A465146284601F00CFC34
:1052B8000B9B206003B11C6001F028FC3B4B3C4D6C
:1052C8001A68DFF8288101321A602A68002A5CD13E
:1052D8002C601B68012B2AD13648DFF814A1DFF8AF
:1052E8001491FFF701FF3448FFF7FEFE3348FFF73C
:1052F800FBFE3348FFF7F8FE3248FFF7F5FE324869
:10530800FFF7F2FE5046FFF7EFFE4846FFF7ECFEC8
:105318002E48FFF7E9FE2E48FFF7E6FE2D48FFF777
:10532800E3FE2D4BC3F800A02C4BC3F800902C4A89
:105338002C491368086801331360E26A2364012466
:1053480004FA02F303430B601A4B142000FB0230EB
:105358003146FFF7D7FE01F0FBFBD8F800305BB110
:105368002B68DB6ABB4207D21F4B4FF080521A6092
:10537800BFF34F8FBFF36F8F2046BDE8F88F3046DD
:1053880001F028FB4FF0FF34F6E7D8F80030002B87
:10539800CDD12B68DB6ABB4298BF2C60C7E700BF42
:1053A800EA720108C6730108D17301087C0800205D
:1053B800F807002004080020180800202C08002006
:1053C800400800205408002068080020C408002075
:1053D800F0080020DC080020FC070020000800205E
:1053E800880800209008002004ED00E0D80800207C
:1053F80094080020A80800201FB50024CDE9024425
:10540800CDE900442346962215491648FFF7EAFEDF
:10541800012818D101F066F8012814D14FF05F0374
:1054280083F31188BFF36F8FBFF34F8F0E4B4FF08D
:10543800FF321A600D4B18600D4B1C6004B0BDE8BC
:10544800104001F0F1BB40B90A490B4840F25162E3
:1054580004B0BDE8104004F0FDBF04B010BD00BFAB
:1054680064730108F9570008BC080020D808002018
:1054780004090020EA72010869730108024A1368E6
:1054880001331360704700BF84080020014B18687F
:10549800704700BF040900202DE9F84F3D4B3E4AF4
:1054A800196811603D4A1268002A6BD11A680132E6
:1054B8001A601D68A5B93A4C23681B682BB140F2E5
:1054C800AA723849384804F0C5FF384B2268196871
:1054D80021601A60364A136801331360FFF748FEEB
:1054E800344C354F2368AB424FF0000B11D93A6862
:1054F800324BD16A14224A439A58022A28BF4FF0E5
:10550800010B2F4A1268002A0CBF58460120BDE83B
:10551800F88FDFF88CA0DFF8B090DAF80020126876
:105528001AB94FF0FF322260E1E7DAF80020D268BA
:10553800D66871688D4201D22160D8E706F1040867
:105548004046FFF702FEB16A19B106F11800FFF7ED
:10555800FCFDF06AD9F80030012202FA00F1194383
:10556800164BC9F800104FF0140C41460CFB0030E4
:10557800FFF7C8FD3868F16AC26A914228BF4FF048
:10558800010BCAE70F4A1368013313604FF0000B91
:10559800B7E700BF04090020080000E084080020E5
:1055A800FC070020EA720108347401080008002092
:1055B800C0080020BC080020F807002004080020CC
:1055C8000809002080080020900800202DE9F843F1
:1055D8002E4C23682BB940F28E622D492D4804F0D9
:1055E80039FF01F093FA2368013B236023682BB14C
:1055F800002401F0ADFA2046BDE8F883264B1B686D
:10560800002BF5D0254D264EDFF8A8802B689BB9D6
:10561800244C23681BB1244D012623686BBB224B05
:105628001C68012CE4D1214B4FF080521A60BFF363
:105638004F8FBFF36F8FDCE7EB68DC6804F1040978
:1056480004F11800FFF781FD4846FFF77EFDE26A86
:105658003168012707FA02F314200B4300FB02808C
:1056680049463360FFF74EFD114BE26A1B68DB6A5F
:105678009A42CBD30C4B1F60C6E7FFF70DFF00B172
:105688002E602368013B2360C7E700BF8408002021
:10569800EA720108997401087C080020C4080020F7
:1056A80090080020800800200809002004ED00E090
:1056B800F80700200408002038B50C46054628B92C
:1056C80040F23F322149224804F0C4FE2CB94FF47D
:1056D80050721E491F4804F0BDFE1F4B1B682BB1BA
:1056E80040F2413219491D4804F0B4FEFFF7C6FEE6
:1056F8001B4B1A682B681C192CBF012100219342EF
:105708002C600CD961B9FFF761FF38B9154B4FF020
:1057180080521A60BFF34F8FBFF36F8F38BD09B93E
:10572800A242F0D2104D28680430FFF70EFD40B9B0
:105738002A680E49D06A0B680122824023EA0203D4
:105748000B602046FFF726FDDDE700BFEA7201087F
:10575800097301081C7301088408002034730108C8
:105768000409002004ED00E0F8070020900800205C
:1057780038B5054640B9174B4FF080521A60BFF351
:105788004F8FBFF36F8F38BD134B1B682BB140F29F
:10579800A3321249124804F05DFEFFF76FFE114B69
:1057A8001C682C44104D28680430FFF7CEFC40B923
:1057B8002A680E49D06A0B680122824023EA020354
:1057C8000B602046FFF7E6FCFFF700FF0028D2D069
:1057D800D9E700BF04ED00E084080020EA72010860
:1057E8003473010804090020F807002090080020FD
:1057F80008B5124E124C236813B903F0B3FBF9E74E
:10580800FFF73CFE3568FFF7E1FE002DF3D001F00D
:105818007DF9F368DD68281DFFF797FC094A1368CE
:10582800013B13602368013B236001F091F9286B69
:1058380001F0D0F8284601F0CDF8DCE7F0080020A8
:105848008C0800207C08002038B50D46044608B9AD
:10585800044B1C6801F05AF92565BDE8384001F091
:1058680077B900BFF807002038B5184B1A68184BED
:1058780012B101221A6038BD1A60164B1C68B4FABE
:1058880084F4E4B2C4F11F041423134D6343EB58AA
:105898002BB940F6C8021149114804F0DBFD142267
:1058A80002FB04F3E91808334868406848602B4451
:1058B800984204BF43684B6002FB04546368DA688B
:1058C800084B1A601B685A6B074BD3E78408002003
:1058D800080900209008002004080020EA72010846
:1058E80071730108F8070020040000E070B50D4648
:1058F800064628B940F6DA021349144804F0AAFD0E
:10590800134C216830461831FFF708FC2068043032
:10591800FFF71BFC40B922680E49D06A0B680122C8
:10592800824023EA02030B606B1C06D121680A48F7
:105938000431BDE87040FFF7E5BB084B1868284400
:10594800BDE87040FFF726BCEA7201084E730108F3
:10595800F807002090080020DC0800200409002037
:10596800F8B50D461646074628B940F659121449A7
:10597800144804F06FFD144C216838461831FFF7BD
:10598800C1FB20680430FFF7E0FB40B922680F49EB
:10599800D06A0B680122824023EA02030B60012EC1
:1059A80006D121680A480431BDE8F840FFF7AABBD0
:1059B800084B18682844BDE8F840FFF7EBBB00BF68
:1059C800EA7201084E730108F807002090080020C9
:1059D800DC0800200409002038B5C368DC682CB94D
:1059E80040F6B4121549164804F034FD04F11805C0
:1059F8002846FFF7AAFB134B1B68E3B9251D284669
:105A0800FFF7A3FB1049E26A0868012393400343A8
:105A18000B600E4B1420294600FB0230FFF772FB87
:105A28000B4BE26A1B68DB6A9A4283BF094B012071
:105A38001860002038BD29460748EFE7EA720108D8
:105A48008A740108840800209008002004080020B7
:105A5800F807002008090020C408002010B50446F3
:105A680028B940F614220549054804F0F3FC054B13
:105A78001B682360044B1B68636010BDEA72010851
:105A88005A730108C00800200409002070B50D46AB
:105A9800044628B940F61E221449154804F0DAFCD9
:105AA8002DB940F61F221149124804F0D3FC01F029
:105AB8002DF8114B19682B685A1C10D00F4A106822
:105AC800D4E90062864201D091420DD2881A8342FD
:105AD8000AD95B1A13442B602046FFF7BFFF002446
:105AE80001F036F8204670BD0124F9E7EA72010892
:105AF8005A730108B873010804090020C00800207F
:105B0800014B01221A60704708090020054B1B68E9
:105B180033B1054B1B68002B0CBF022000207047D7
:105B280001207047D8080020840800202DE9F041A2
:105B3800044600282ED01E4DC36A2A68D26A9342B2
:105B480028D282691B4E002AA1BF2A68D26AC2F1F4
:105B5800060282611427426907FB03639A4216D141
:105B680000F104084046FFF7F0FA134AA0B12B6889
:105B78001168D86AE062012383400B431360142341
:105B8800414603FB0060BDE8F041FFF7BBBA2B6854
:105B9800DB6AC362BDE8F081E06A4743F359002B32
:105BA800E5D113680121814023EA01031360DEE790
:105BB800F80700200408002090080020F8B50446E3
:105BC80008B90020F8BD204B1B68834205D040F679
:105BD800A7521E491E4804F03DFCE36C2BB940F661
:105BE800A9521A491B4804F035FCE36CE16AA26C1F
:105BF800013B9142E364E4D0002BE2D1251D284605
:105C0800FFF7A3FA144E154A50B9E76A14217943ED
:105C180073582BB913680120B84023EA00031360B6
:105C2800A36CE362C3F10601A1611168012404FABF
:105C380003F008431060142000FB03602946FFF7B7
:105C480061FA2046BEE700BFF8070020EA720108A3
:105C58005F7401087574010804080020900800208A
:105C6800044B1A681AB11968CA6C0132CA641868F8
:105C7800704700BFF807002038B51546026C044687
:105C88005AB905680DB1002003E04068FFF796FF98
:105C98006560A36B0133A36338BD65B9806811F0F3
:105CA8002CFAA368226C13446268A3609342EAD377
:105CB8002368A360E7E7C06811F01FFA236CE26865
:105CC80021685B421A448A42E2603EBF62689B18C0
:105CD800E360022DD7D1A36B002BD4D0A36B013B7B
:105CE800A363D0E7034610B41A6C084662B1D968BA
:105CF8005C681144A142D96024BF1968D960D96889
:105D08005DF8044B11F0F9B95DF8044B704738B5EC
:105D1800044600F0FBFE04F12405A36C002B12DC02
:105D28004FF0FF33A36400F013FF00F0EFFE04F11F
:105D38001005636C002B13DC4FF0FF336364BDE880
:105D4800384000F005BF636A002BE9D02846FFF70A
:105D580043FE08B1FFF7D4FEA36C013BA364DCE764
:105D68002369002BE8D02846FFF736FE08B1FFF775
:105D7800C7FE636C013B6364DBE7000038B50D4682
:105D8800044628B94FF4847219491A4804F062FB92
:105D980000F0BCFED4E90F312268A2604B43D01852
:105DA8005B1A13446060E36000204FF0FF33A06388
:105DB8006364A3649DB923696BB104F11000FFF714
:105DC8000BFE012807D10C4B4FF080521A60BFF32D
:105DD8004F8FBFF36F8F00F0BBFE012038BD04F179
:105DE8001000FFF781F904F12400FFF77DF9F2E7CD
:105DF8001B7501083475010804ED00E0F8B50D467F
:105E08001746064628B940F243121349134804F0CE
:105E180021FB7DB105FB06F00130543000F03CFD5C
:105E2800044648B940F27F120B490D4804F012FBB2
:105E38002046F8BD2846F0E74DB92060C4E90F6553
:105E480001212046FFF79AFF84F85070F0E700F12F
:105E580054030360F2E700BF1B750108AE74010824
:105E6800697301082DE9FF470F4601921E46044653
:105E780028B940F267225749574804F0EBFA3FB96E
:105E8800236C2BB14FF41A725249544804F0E2FAC9
:105E9800022E08D1E36B012B05D040F269224D494F
:105EA8004F4804F0D7FAFFF731FE38B9019B2BB100
:105EB8004FF41B7247494B4804F0CCFADFF828919D
:105EC800DFF828814FF0000A00F020FEA26BE36B98
:105ED8009A4201D3022E22D1E36C434A43F48073E1
:105EE8001360394632462046FFF7C6FE636A73B12F
:105EF80004F12400FFF770FD01280AD13B4B4FF055
:105F080080521A60BFF34F8FBFF36F8F01E00028F4
:105F1800F4D100F01DFE012004B0BDE8F087019D1A
:105F280045B900F015FEE36C2F4A43F40073136083
:105F38000020F1E7BAF1000F02D102A8FFF78EFDA9
:105F480000F006FEFFF79AFA00F0E0FD636C0133FB
:105F580004BF00236364A36C013304BF0023A3645C
:105F680000F0F6FD01A902A8FFF790FD58BB00F06C
:105F7800CDFDA26BE36B9A4214D100F0E9FDE36C0E
:105F880043F48063C9F80030019904F11000FFF769
:105F9800ADFC2046FFF7BBFEFFF718FB50B14FF0F2
:105FA800010A91E700F0D4FD2046FFF7B0FEFFF7A5
:105FB8000DFBF4E74FF08053C8F80030BFF34F8F64
:105FC800BFF36F8FEBE72046FFF7A1FEFFF7FEFA5E
:105FD800A9E700BF1B750108347501083C75010865
:105FE8008C750108D37501080C0000E004ED00E091
:105FF80070B50646542000F04FFC0446D8B1002581
:106008000123C0E90F354FF0FF33856380F85060F6
:106018004364C0E900558364C0E902551030FFF7B6
:1060280063F804F12400FFF75FF82B462A46294657
:106038002046FFF717FF204670BD00002DE9F0410C
:10604800884616461D46044628B940F22442264989
:10605800264804F0FFF9B8F1000F07D1236C2BB1E3
:1060680040F225422049224804F0F4F9022D08D1D3
:10607800E36B012B05D040F226421B491D4804F072
:10608800E9F900F047FEEFF311874FF05F0383F360
:106098001188BFF36F8FBFF34F8FA26BE36B9A42E8
:1060A80001D3022D1DD12A4641462046FFF7E4FDC3
:1060B800A36C013311D1636A0BB9012009E004F123
:1060C8002400FFF789FC0028F7D0002EF5D0012026
:1060D800306087F31188BDE8F081A36C0133A364B5
:1060E800EBE70020F5E700BF1B75010834750108D0
:1060F8003C7501088C75010870B50D46044628B931
:1061080040F2BF422149224804F0A4F9236C2BB184
:1061180040F2C3421D491F4804F09CF923683BB96B
:1061280063682BB14FF4996218491B4804F092F93F
:1061380000F0F0FDEFF311864FF05F0383F3118851
:10614800BFF36F8FBFF34F8FA26BE36B9A421AD2E4
:10615800A36B0133A363A36C013310D1636A0BB93A
:10616800012009E004F12400FFF736FC0028F7D0ED
:10617800002DF5D00120286086F3118870BDA36C2E
:106188000133A364ECE70020F6E700BF1B750108A4
:106198003475010829760108427601082DE9FF4780
:1061A8000E4601929846044628B940F25B5255497A
:1061B800554804F04FF93EB9236C2BB140F25C52BC
:1061C8005049524804F046F9FFF7A0FC38B9019B42
:1061D8002BB140F25F524B494D4804F03BF9DFF8D0
:1061E80038914C4F4FF0000A00F090FCA36B7BB342
:1061F80031462046E568FFF775FDB8F1000F18D164
:10620800A36B013BA363236813B9FFF729FD606003
:106218002369BBB104F11000FFF7DEFB012811D19F
:106228003C4B4FF080521A60BFF34F8FBFF36F8F14
:1062380008E0636AE5602BB104F12400FFF7CCFBAA
:106248000028EDD100F084FC012004B0BDE8F087FF
:10625800019D1DB900F07CFC0020F6E7BAF1000FA3
:1062680002D102A8FFF7FAFB00F072FCFFF706F96B
:1062780000F04CFC636C013304BF00236364A36C1F
:10628800013304BF0023A36400F062FC01A902A843
:10629800FFF7FCFB80BB00F039FCA36B13BB00F0DD
:1062A80057FCE36C43F44073C9F80030236833B9F2
:1062B80000F02CFC6068FFF739FC00F049FC0199FC
:1062C80004F12400FFF712FB2046FFF720FDFFF73B
:1062D8007DF970B94FF080533B60BFF34F8FBFF328
:1062E8006F8F06E000F034FC2046FFF710FDFFF743
:1062F8006DF94FF0010A77E72046FFF708FDFFF731
:1063080065F9A9E71B75010834750108D0740108FF
:10631800D375010804ED00E00C0000E0F8B50F4665
:106328001646044628B940F215621D491D4804F076
:1063380091F83FB9236C2BB140F2166218491A48FC
:1063480004F088F800F0E6FCEFF311854FF05F03E6
:1063580083F31188BFF36F8FBFF34F8FA06BB8B172
:1063680039462046FFF7BEFCA36B013BA363636C71
:10637800013310D123690BB9012009E004F11000A1
:10638800FFF72AFB0028F7D0002EF5D00120306057
:1063980085F31188F8BD636C01336364ECE700BFD3
:1063A8001B75010834750108D074010810B504463E
:1063B80028B94FF4D4620549054804F04BF800F0B9
:1063C800A5FBA46B00F0C4FB204610BD1B7501089B
:1063D8003575010830B5074A002352F8335002EBEF
:1063E800C3041DB942F83310606030BD01330A2B75
:1063F800F3D1FAE78892002070B504460D46164698
:1064080000F084FB636C013304BF00236364A36C56
:10641800013304BF0023A36400F09AFBA36B2BB9DC
:106428003246294604F12400FFF79AFA2046BDE8CF
:106438007040FFF76CBC0000F8B5134C00F066FB29
:106448002568EDB9114F124E3846FEF74DFE30461D
:10645800FEF74AFE0F4B1F600F4B2A460C211420F3
:106468001E60FFF7CBFC206028B940F21A320B49B6
:106478000B4803F0EFFF206810B10A49FFF7AAFFA5
:10648800BDE8F84000F064BB400900201409002072
:10649800280900200C090020100900209D76010819
:1064A800B7760108C3760108914208B541600061DA
:1064B8000AD8D21A83699A420DD2084B011D18686E
:1064C800FEF72CFE002008BD9A4201D2994202D262
:1064D800011D034BF3E70120F5E700BF1009002079
:1064E8000C0900201FB5FFF7A7FF0D4B1B684BB920
:1064F8000C480D494FF4877203F0ACFF002005B03B
:106508005DF804FB002301220092CDE902330193D8
:10651800962206490648FEF765FE0028E8D0EEE711
:1065280040090020697301089D7601081177010868
:10653800716600082DE9F041804617461E460D4653
:1065480099B12C2000F0A8F9044658B1FFF774FF60
:10655800069BC4F80080C4E9065726626362201DC2
:10656800FEF7CDFD2046BDE8F0814FF49B7203494C
:10657800034803F06FFF2C46F4E700BF9D7601083F
:10658800F57601082DE9FF410D4690461F4606465F
:1065980028B940F241121049104803F05BFF104C33
:1065A800206880B1052DCDE9015803960EDCFFF770
:1065B800ADFA0023022808BF0A9A206818BF1A46B5
:1065C80001A9FFF74FFC04B0BDE8F08100233A466B
:1065D80001A9FFF733FDF6E79D7601081977010851
:1065E800400900202DE9F7431B4D1C4FDFF874804C
:1065F8002B681A6832B91A4A11682960136003B007
:10660800BDE8F083DB68DC681E6804F104094846CD
:10661800FEF79BFD636A20469847E369012BE7D1A3
:10662800A36933449E4206D26360246149462868C0
:10663800FEF774FDDCE70023009332461946204636
:10664800FFF7A0FF0028D3D14FF43F7239464046E8
:1066580003F000FFCCE700BF0C0900209D7601087D
:1066680010090020C87601082DE9F04F654F664EE5
:1066780089B0BB463A681368002B44D0D268D2F878
:1066880000A0624C0393FEF7F9FEFEF7FFFE2268B6
:10669800DFF88C81039B90420546A14635D2FFF76F
:1066A800A1FF2560FEF792FF00231A4605A9D8F836
:1066B8000000FFF773FD0028DCD0059B002BF3DBFF
:1066C800079C636913B1201DFEF73FFDFEF7DEFE50
:1066D800D9F800309842054601D2FFF783FF059BA1
:1066E800C9F80050092BDFD8012202FA03F313F48A
:1066F800047A75D113F0C70F4DD19B06D4D5204627
:1067080000F068F9D0E79A46BBE7206043B38245BA
:106718003FD8FEF75BFFDBF80030DB68DC68201D44
:10672800FEF713FDE369012B16D1A16953462A46EA
:1067380051442046FFF7B8FE01280DD100230093ED
:10674800524619462046FFF71DFF28B940F293121A
:1067580031462F4803F07EFE636A20469847A3E738
:106768002C4B1B681A68B2FA82F25209AAEB05018F
:10677800D8F80000FFF740FEFEF728FF002893D165
:10678800254B4FF080521A60BFF34F8FBFF36F8FC6
:106798008AE70022EAE7A169069B2A4619442046AF
:1067A800FFF782FE01287FF47FAF636A204698478F
:1067B800E369012B7FF478AFA2690699CDF800A0B0
:1067C8000A44534651462046FFF7DCFE00287FF472
:1067D8006BAF4FF4287231460D4803F03BFE63E778
:1067E800069BA3612BB940F2B72231460B4803F050
:1067F80031FEA1692B462A4629442046FFF754FE5C
:1068080052E700BF0C0900209D7601083C090020D2
:10681800C87601081009002004ED00E0D0760108D0
:106828004009002010B5044628B94FF453720549B1
:10683800054803F00FFE00F069F9246A00F088F9B2
:10684800204610BD9D7601081977010810B5104B38
:106858001A68824219D35C681919884201BF4168D5
:1068680018460919596041684418A24208D1094CD0
:106878002468A24204D052680A4442601A68126826
:106888000260984218BF186010BD1346E0E700BFC9
:10689800847E0020440900202DE9F8430446FEF7D1
:1068A800EDFD4249424E0B68FBB9424A424D500742
:1068B8001FBF0732414B22F007029B1A08BF47F25D
:1068C80030531344083B23F00703002068602A6014
:1068D800C3E90000981A0B60C2E90030384B186011
:1068E800384B18604FF00043336033681C4205D0C2
:1068F800FEF76CFE02F0BCF9002748E0002CF7D048
:10690800083462071CBF24F007040834002CEFD0B9
:106918002C4B1A68A2429846EAD3274B1D686A682E
:10692800A24202D22A68002A3CD10A68AA42DFD0D1
:106938002A681F681A606B681B1B102B07F1080771
:1069480011D905EB040919F0070F04D0E8221E49F4
:106958001E4803F07FFD6B681B1BC9F804304846CE
:106968006C60FFF773FF16496A68D8F8003008684A
:106978009B1A834238BF0B60C8F800303368134352
:106988006B6000232B60FEF721FE002FB2D07B073F
:1069980005D04FF494720C490D4803F05BFD38465E
:1069A800BDE8F8832B461546B9E700BF4409002027
:1069B800787E002048090020847E0020787E002010
:1069C800807E00207C7E0020207701084B7701081C
:1069D8008C77010838B5044680B3194D50F8041C6B
:1069E8002A68114205D14FF49E721649164803F0E1
:1069F80031FD54F8083C2BB140F23D1211491348BF
:106A080003F028FD54F8043C2A68134216D054F8C1
:106A1800081C99B923EA020344F8043CFEF72EFD4A
:106A28000B4A54F8043C1168A4F108000B441360A5
:106A3800FFF70CFFBDE83840FEF7C8BD38BD00BF02
:106A4800787E002020770108C9770108FA770108C5
:106A58007C7E0020014B1868704700BF7C7E0020B8
:106A680006480068006880F3088862B661B6BFF31C
:106A78004F8FBFF36F8F00DF00BF000008ED00E00D
:106A8800DFF80C00016841F47001016070470000F4
:106A980088ED00E008B5094B1B68013305D040F2CA
:106AA80007120749074803F0D5FC4FF05F0383F34B
:106AB8001188BFF36F8FBFF34F8FFEE700000020F0
:106AC8001A780108487801084FF0807340E90213EA
:106AD800054B40F80C3C6FF0020340F8202C40F8BE
:106AE800243C4438704700BF9D6A0008064B19686B
:106AF8000868B0E8F04F80F30988BFF36F8F4FF054
:106B0800000080F311887047F80700204FF05F03FA
:106B180083F31188BFF36F8FBFF34F8F084A136851
:106B28000133012B13600AD1064B1B6813F0FF0FCA
:106B380005D040F29F120449044803F08BBC70470B
:106B48000000002004ED00E01A78010862780108CE
:106B580010B5084C23682BB94FF4D372064907487F
:106B680003F078FC2368013B23600BB983F3118899
:106B780010BD00BF000000201A78010897780108AE
:106B8800EFF30980BFF36F8F144B1A681EF0100FD4
:106B980008BF20ED108A20E9F04F10604DF8043D41
:106BA8004FF05F0080F31188BFF34F8FBFF36F8FF3
:106BB800FEF75AFE4FF0000080F3118808BC1968F0
:106BC8000868B0E8F04F1EF0100F08BFB0EC108A4C
:106BD80080F30988BFF36F8F704700BFF807002064
:106BE80008B5EFF311834FF05F0282F31188BFF30A
:106BF8006F8FBFF34F8FFEF74FFC18B1034B4FF069
:106C080080521A60002383F3118808BD04ED00E068
:106C1800034B044A1A60072243F8042C704700BF4C
:106C280014E000E03F90020013B52E4C2E4A216874
:106C3800914205D140F23D122C492D4803F00AFC3F
:106C480022682C4B9A4205D14FF49F7227492A4853
:106C580003F000FC294B1A78D2B20192FF221A7075
:106C68001B78274ADBB28DF803309DF8033003F018
:106C78005F031370234B07221A6000219DF803005D
:106C8800000602F1FF3423D401B11A601A68120217
:106C980002F4E0621A60019B184ADBB213701A4BC7
:106CA8001A6842F47F021A601A6842F07F421A603A
:106CB800FFF7AEFF154B00221A60FFF7E1FE144AFA
:106CC800136843F040431360FFF7CAFEFFF7E2FE84
:106CD8009DF803205200D2B28DF8032001212246EC
:106CE800CCE700BF00ED00E071C20F411A7801083F
:106CF8001579010870C20F413879010800E400E0F5
:106D08008C7E0020907E002020ED00E00000002016
:106D180034EF00E008B5EFF305830F2B0BD90E4ACB
:106D28009B5C0E4A12789A4205D94FF438720C4986
:106D38000C4803F08FFB0C4B0C4A1B68126803F4D9
:106D4800E063934207D94FF43C7205490848BDE80F
:106D5800084003F07FBB08BDF0E300E08C7E002014
:106D68001A780108A97801080CED00E0907E00204F
:106D7800D378010808B501214FF4807000F04CFC6D
:106D880000214FF48070BDE8084000F045BC0000C9
:106D980043680A7923F0407323F4807343EA02239B
:106DA8000A6813434360D1E9032313438A6810B583
:106DB80013438468084A224013434A7943EA42034A
:106DC80083600A7DC36A013A23F47003D2B243EAAE
:106DD8000253C36210BD00BFFDF7FFC0002303606C
:106DE80003714371C0E902330361012303757047DE
:106DF80010B5D0E90032064913434C68054A2240D1
:106E0800134382681343C26813434B6010BD00BF2D
:106E180000230140E030FCFF0023C0E90033C0E953
:106E280002337047836819B143F0010383607047E8
:106E380023F00103FAE7092970B51BD9A1F10A0467
:106E4800C56804EB44040726A64025EA060503FAAC
:106E580004F42C43C460062A18D8013A436B02EBA9
:106E680082021F24944023EA040301FA02F21A431F
:106E7800426370BD056901EB41060724B44025EA69
:106E8800040503FA06F42C430461E4E70C2A0CD841
:106E9800073A036B02EB82021F24944023EA04039F
:106EA80001FA02F21A430263E3E70D3AC36A02EBFE
:106EB80082021F24944023EA040391401943C162CB
:106EC800D7E7836843F0804383607047C06C80B223
:106ED80070470368194214BF012000207047000062
:106EE800044BDA6811B11043D860704722EA0000F9
:106EF800FAE700BF002004E0036823F00103036001
:106F08000023036043608360C360036121234361FE
:106F18002A4B984203D13D2243F8082C7047284B4E
:106F2800984204D14FF4746243F8202C7047254BE3
:106F3800984204D14FF4741243F8382C7047224B0E
:106F4800984204D14FF0746243F8502C70471F4B9D
:106F5800984203D11E4A43F8642C70471D4B98424F
:106F680003D11D4A43F87C2C70471C4B984203D12F
:106F78001B4A43F8942C70471A4B984204D14FF09F
:106F88003D5243F8AC2C17E0174B9842C3D0174B2F
:106F98009842C7D0164B9842CCD0164B9842D1D0C5
:106FA800154B9842D6D0154B9842DAD0144B9842DC
:106FB800DED0144B9842E2D0704700BF1060024008
:106FC8002860024040600240586002407060024001
:106FD8003D00002088600240400F0020A060024071
:106FE80000003D20B860024010640240286402405E
:106FF8004064024058640240706402408864024061
:10700800A0640240B86402400368134A10B51A40ED
:10701800CC680B6823434C6923438C692343CC69B0
:1070280023430C6A23434C6A23438C6A23434C6BE7
:1070380023438C6B234313430360D1E90B34426928
:10704800234322F00702134343610B6943604B68F3
:1070580083608B68C36010BD3F801CF0036819B162
:1070680043F001030360704723F00103FAE741602E
:107078007047406880B27047006800F001007047B0
:1070880010B50A4B0A4C0B4AA04294BF184610464A
:107098008B004CBF4368036821F0F02121F0821176
:1070A800194214BF0120002010BD00BF006002403B
:1070B8000F6402400064024010B5084B084A094CAE
:1070C800A0428CBF1846104621F0F02323F082130B
:1070D8008A004CBFC360836010BD00BF00640240DB
:1070E800006002400F6402400B0612D5436952B19A
:1070F80043F080038029436104D0036801F01E0136
:1071080019430160704723F080038029436104D14B
:1071180070478029F6D0002AEFD1036801F01E01DC
:1071280023EA0101EDE70000114B124A10B5124C99
:10713800A04288BF1A4621F0F02323F0C31393B16D
:10714800006800EAD12000F01E0388004CBF506898
:10715800106821F0F02121F08211084002D0181C9B
:1071680018BF012010BD436903F08003EDE700BF9D
:1071780000640240006002400F640240FFF79CBFB9
:107188000268837910B5D243002B2FD01B4B1968A6
:107198000A401A605A68016822EA01025A600279B4
:1071A800046802F1804202F59E32116821431160A1
:1071B8009A68016822EA01029A600168DA6822EA9C
:1071C8000102DA6042790168102A07D19A680A43F5
:1071D8009A60DA6801680A43DA6010BD02F18043F8
:1071E80003F59E331A680A431A60F6E7037903F138
:1071F800804303F59E3319680A40F5E7003C0140D7
:10720800034B5B69034214BF01200020704700BF95
:10721800003C0140014B5861704700BF003C0140F1
:10722800FFF7EEBF014B5861704700BF003C0140BB
:10723800F0B50022012603250B6806FA02FC3CEA99
:1072480003032ED15400076805FA04F3DB431F40FB
:1072580007600F79D0F800E0A74047EA0E070760FB
:107268000F79013F012F11D887683B4083604B7924
:107278008768A3403B438360436823EA0C03436069
:107288008B79476893409BB23B434360C36805FAD8
:1072980004F723EA0703C360CB79C768A3403B43DD
:1072A800C3600132102AC7D1F0BD4FF6FF730360E7
:1072B8000023037143718371C371704703691942D5
:1072C80014BF012000207047018370474183704735
:1072D8000AB1018370474183704710B501F0070375
:1072E800C90800EB81009B00016A0F249C4021EA39
:1072F80004010162016A9A400A43026210BD00005B
:1073080008B5144B98420BD101214FF4001000F03E
:1073180077F900214FF40010BDE8084000F070B97B
:107328000D4B984208D101214FF4800000F068F914
:1073380000214FF48000EFE7084B984208D1012163
:107348004FF4000000F05CF900214FF40000E3E77F
:1073580008BD00BF0054004000580040005C0040D9
:107368007FB5868826F03F060446360468460D46F3
:10737800360C00F0D1F8029A2949B2FBF1F188B233
:107388000643A6802388274E23F001031B041B0C09
:1073980023802B68B3421ED85B000130B2FBF3F3A5
:1073A8009BB2042B80B238BF04232084A383238894
:1073B80043F0010323802388AA88698923F4816321
:1073C8000A4323F0020313432380AB892A8913431A
:1073D800238104B070BDEE884BF6FF7086421BBF58
:1073E8001920434303EB4303B2FBF3F315BF9BB2EE
:1073F800B2FBF3F343F480439BB2C3F30B020AB925
:1074080043F001034FF496724A434FF47A7192FBAA
:10741800F1F2013292B243F400432284C6E700BF7E
:1074280040420F00A086010022B141F0010189B25B
:107438000182704701F0FE01F9E7038819B143F4AE
:1074480080630380704723F480631B041B0CF8E7F8
:1074580001827047008AC0B27047838819B143F42B
:1074680000638380704723F400631B041B0CF8E758
:10747800838819B143F480538380704723F4805381
:107488001B041B0CF8E7838812B1194381807047ED
:1074980023EA0101FAE782B00023009301930B0F5E
:1074A80001900093009B21F07F4153B1019B14335D
:1074B8000193019B1B680B4214BF0120002002B0FE
:1074C8007047019B090C1833F2E7C94389B28182DE
:1074D80070470000014B1860704700BF0030004043
:1074E800014B5860704700BF00300040014B986066
:1074F800704700BF00300040024B4AF6AA221A60CB
:10750800704700BF00300040024B4CF6CC421A6076
:10751800704700BF0030004010B51D4A936803F063
:107528000C03042B1AD0082B1AD01A4B184A0360E4
:1075380093681949C3F30313CC5C0368E3404360C1
:107548009468C4F382240C5D23FA04F4846092687E
:10755800C2F342328A5CD340C36010BD0F4BE5E7EB
:107568005468516852686302C2F3881201F03F01FF
:107578004CBF0A4B074BB3FBF1F35343044A526821
:10758800C2F3014201325200B3FBF2F3CEE700BF6F
:10759800003802400024F4000400002000127A00A1
:1075A800044B1A6B11B110431863704722EA0000AC
:1075B800FAE700BF00380240044B5A6B11B1104380
:1075C8005863704722EA0000FAE700BF003802401B
:1075D800044B1A6C11B110431864704722EA00007A
:1075E800FAE700BF00380240044B5A6C11B110434F
:1075F8005864704722EA0000FAE700BF00380240EA
:10760800044B1A6A11B110431862704722EA00004D
:10761800FAE700BF00380240044B5A6A11B1104320
:107628005862704722EA0000FAE700BF00380240BB
:107638004209012A074B07D11B6800F01F0023FAF3
:1076480000F000F001007047022A0CBF1B6F5B6F4F
:10765800F3E700BF00380240024A536F43F08073DB
:10766800536770470038024008B5274B98420BD142
:1076780001214FF48050FFF7CFFF00214FF48050D5
:10768800BDE80840FFF7C8BF204B98420BD1012145
:107698004FF48040FFF7B4FF00214FF48040BDE86D
:1076A8000840FFF7ADBF1A4B984208D101214FF4AB
:1076B8000040FFF7A5FF00214FF40040EFE7154B0E
:1076C800984208D101214FF40050FFF7A5FF00218F
:1076D8004FF40050D4E7104B984208D101214FF4E1
:1076E8008010FFF799FF00214FF48010C8E70B4B7B
:1076F800984208D101214FF40010FFF78DFF0021B7
:107708004FF40010BCE708BD0030014000380040CD
:10771800003C00400034014000500140005401404A
:10772800038810B503F441524C880B8823438C8896
:107738002343CC8823430C8923434C8923438C89D6
:107748002343CC89234313430380838B23F40063AF
:107758001B041B0C83830B8A038210BD038819B199
:1077680043F040030380704723F040031B041B0CC5
:10777800F8E7838812B119438180704723EA010131
:10778800FAE730B5048C24F001042404240C0484A2
:10779800048B058C24F0F304240442EA0313240C1C
:1077A8001C4325F00A031B041B0C41F00101A4B281
:1077B8000B430483038430BD30B5048C24F01004DB
:1077C8002404240C0484058B048C120242EA03333B
:1077D80024F0A00225F4407512042D05120C2D0D7D
:1077E80042EA01111D4341F01001ADB289B205838F
:1077F800018430BD08B54D4B984209D10121084696
:10780800FFF70AFF00210120BDE80840FFF704BF89
:10781800B0F1804F09D101210846FFF7F1FE0021A0
:107828000120BDE80840FFF7EBBE414B984206D166
:1078380001210220FFF7E4FE00210220F1E73D4B81
:10784800984206D101210420FFF7DAFE0021042026
:10785800E7E7394B984206D101210820FFF7D0FE0F
:1078680000210820DDE7354B984206D10121102080
:10787800FFF7C6FE00211020D3E7314B984206D10E
:1078880001212020FFF7BCFE00212020C9E72D4B55
:10789800984206D101210220FFF7BEFE00210220F6
:1078A800B2E7294B984208D101214FF48030FFF705
:1078B800B3FE00214FF48030A6E7244B984208D14C
:1078C80001214FF40030FFF7A7FE00214FF40030EC
:1078D8009AE71F4B984208D101214FF48020FFF707
:1078E8009BFE00214FF480208EE71A4B984206D168
:1078F80001214020FFF784FE0021402091E7164B2C
:10790800984206D101218020FFF77AFE00218020CD
:1079180087E7124B984208D101214FF48070FFF796
:107928006FFE00214FF480707BE708BD0000014026
:107938000004004000080040000C00400010004017
:107948000014004000040140004001400044014090
:107958000048014000180040001C00400020004082
:107968001C4A038890429BB212D002F58062904272
:107978000ED0B0F1804F0BD0A2F58032904207D0E4
:1079880002F58062904203D002F58062904203D1F2
:107998004A8823F0700313430F4A904208D002F537
:1079A800806290421FBF23F440730A899BB213433D
:1079B80003804B68C3620B880385064B984203D04B
:1079C80003F58063984201D18B7A03860123838271
:1079D800704700BF000001400010004000234FF036
:1079E800FF32C0E9003203818372704701858282C9
:1079F8007047038819B143F001030380704723F0EF
:107A080001031B041B0CF8E7038C23F001031B0480
:107A18001B0C038470B5038C8288048B0D884E88F8
:107A280024F073042404240C2C4323F002038D89CE
:107A38001B0435431B0C2B430D4DA84292B203D0B7
:107A480005F58065A8420DD1CD894E8A23F008033B
:107A58002B438D8823F004032B430D8A22F44072B4
:107A680035432A43828004838A684263038470BD55
:107A780000000140038C23F010031B041B0C03843B
:107A880070B5038C8488028B0D884E8822F4E642F8
:107A98001204120C42EA052223F020038D891B04EC
:107AA80035431B0C43EA0513114DA842A4B292B208
:107AB8009BB203D005F58065A84213D1CD894E8AC3
:107AC80023F0800343EA05134FF6BF751D408B88EA
:107AD80045EA03130D8A24F44064354344EA8504D7
:107AE8009BB2A4B2848002838A688263038470BDD7
:107AF80000000140038C23F480731B041B0C0384D7
:107B080070B5038C8288848B0D884E8824F07304AA
:107B18002404240C2C4323F400738D891B0435435F
:107B28001B0C43EA0523114DA84292B29BB203D025
:107B380005F58065A84213D1CD894E8A23F40063E8
:107B480043EA05234FF6FF351D408B8845EA03239A
:107B58000D8A22F44052354342EA05129BB292B292
:107B6800828084838A68C263038470BD00000140F8
:107B7800038C23F480531B041B0C038470B5038C03
:107B88008488828B0D884E8822F4E6421204120CF7
:107B980042EA052223F400538D891B0435431B0C4C
:107BA80043EA05330A4DA842A4B292B29BB203D06D
:107BB80005F58065A84205D10D8A24F4804444EA7D
:107BC8008514A4B2848082838A680264038470BDA9
:107BD800000001404163704781637047C16370478B
:107BE80001647047038B23F008031B041B0C194323
:107BF80001837047038B23F400631B041B0C43EAC7
:107C0800012189B201837047838B23F008031B0489
:107C18001B0C194381837047838B23F400631B0477
:107C28001B0C43EA012189B281837047002301229A
:107C3800038043808280C38003817047406B704714
:107C4800806B7047006C7047038B23F00C031B0498
:107C58001B0C0383038B194301837047038B23F4A5
:107C680040631B041B0C0383038B43EA012189B285
:107C780001837047838B23F00C031B041B0C838345
:107C8800838B194381837047838B23F440631B04E0
:107C98001B0C8383838B43EA012189B2818370475C
:107CA800F8B50E460D88B2884988338935B9FFF78B
:107CB80068FDF188BDE8F840FFF7C6BF042D06D17E
:107CC800FFF77AFDF188BDE8F840FFF7C7BF082D38
:107CD800058C1CD125F480752D042D0C0584878B0B
:107CE800058CBFB227F0F3073A43ADB242EA03135B
:107CF80025F4206242F4807242EA01219BB289B2E3
:107D080083830184F188BDE8F840FFF7B3BF25F409
:107D180080552D042D0C0584878B058C25F4005582
:107D280027F440776D043F051B036D0C3F0D45F4A8
:107D3800805543EA02233B4345EA01319BB289B2AD
:107D480083830184F188BDE8F840FFF79DBFB0F850
:107D5800443021B143F40043A0F844307047C3F3E2
:107D68000E03F9E7838912B119438181704723EA29
:107D78000101FAE7038A194214BF01200020704765
:107D8800038A828911EA030092B203D00A4214BF1F
:107D9800012000207047C94389B201827047FFF76C
:107DA800E1BF000030B5038ACA889BB223F4405370
:107DB8001343038283890D4623F4B0528B880989C3
:107DC8000B43698922F00C020B4313438381838A96
:107DD800AA899BB223F44073134385B08382044677
:107DE8006846FFF799FB1A4B9C4203D003F5806362
:107DF8009C4222D10399A2891923100403FB01F3A1
:107E0800A28929684FF064054CBF49008900120413
:107E1800B3FBF1F1B1FBF5F34FEA031005FB1313C4
:107E28000DD5DA003232B2FBF5F202F0070242EA6F
:107E380000039BB2238105B030BD0299DBE71B012B
:107E48003233B3FBF5F303F00F030343F1E700BF4D
:107E580000100140838919B143F4005383817047AE
:107E680023F400531B041B0CF8E7C1F308018180BD
:107E780070478088C0F308007047838A12B119439D
:107E88008182704723EA0101FAE710B5C1F3421471
:107E980001F01F03012C4FF0010101FA03F105D194
:107EA8000C3003683AB11943016010BD022C0CBFB5
:107EB80010301430F5E723EA0101F5E7C94389B228
:107EC80001807047C1F3421210B5012301F01F046D
:107ED800012A03FA04F30DD182891340028892B271
:107EE8006BB10123090A03FA01F10A4214BF1846CB
:107EF800002010BD022A0CBF028A828AEDE71846CC
:107F0800F7E7000040F0BF60024B40F40030D86053
:107F1800704700BF00ED00E010B5C378027803B3E6
:107F2800154BD9684378C943C1F30221C1F1040450
:107F3800E4B2A340DCB20F2343FA01F183780B408B
:107F48000E4923430A441B01DBB282F8003303784D
:107F58000122580903F01F0302FA03F341F8203005
:107F680010BD5309012102F01F0201FA02F2203369
:107F7800024941F82320F3E700ED00E000E100E0CA
:107F880010B501F0030301F0FC0101F1804101F596
:107F98009C319B008A680F249C4022EA04028A6074
:107FA8008A6898401043886010BD08B503F0F3FE56
:107FB80000F092FEFDF720FA03F014FF01210020E3
:107FC80003F00AFF0121084603F006FFFEE7000060
:107FD8002DE9F0411E4E3578C5BB1E4C01214FF4EA
:107FE8008040FFF7E9FA01270623A57020460D25F2
:107FF8002370E7706570FFF78FFF07232046237013
:108008006570FFF789FF0823204623706570FFF726
:1080180083FF0923204623704FF00A086570FFF795
:108028007BFF05232046637084F80080FFF774FF08
:108038001723204623706570FFF76EFF282320461C
:1080480084F801802370FFF767FF3770BDE8F0817F
:10805800987E0020947E0020704708B50120FFF725
:10806800E1F8FFF7F9FF08BD704708B50220FFF7F0
:10807800D9F8FFF7F9FF08BD704708B50420FFF7E6
:10808800D1F8FFF7F9FF08BD704708B50820FFF7DA
:10809800C9F8FFF7F9FF08BD08B51020FFF7C2F8C7
:1080A80005F0A2FD08BD70477047704770477047DC
:1080B80008B52020FFF7B4F8012804D12020FFF7E5
:1080C800B1F8FFF7F0FF4020FFF7AAF8012804D124
:1080D8004020FFF7A7F8FFF7E7FF8020FFF7A0F899
:1080E800012804D18020FFF79DF8FFF7DEFF4FF449
:1080F8008070FFF795F8012805D14FF48070FFF7DD
:1081080091F8FFF7D3FF4FF40070FFF789F80128C3
:1081180005D14FF40070FFF785F8FFF7C8FF08BDD9
:108128007047704770477047704708B54FF48060D4
:10813800FFF776F8012805D14FF48060FFF772F851
:10814800FFF7EEFF4FF40060FFF76AF8012805D14A
:108158004FF40060FFF766F80AF028FE4FF48050ED
:10816800FFF75EF8012805D14FF48050FFF75AF861
:10817800FFF7D7FF4FF40050FFF752F8012805D159
:108188004FF40050FFF74EF8FFF7CCFF4FF4804054
:10819800FFF746F8012805D14FF48040FFF742F871
:1081A800FFF7C1FF4FF40040FFF73AF8012805D167
:1081B8004FF40040FFF736F8FFF7B6FF08BD4FF45D
:1081C8004070FFF79FBEFEF70BBD70471EF0040F0F
:1081D8000CBFEFF30880EFF3098000F001B8704797
:1081E8002DE9F84FD0E900BAD0E90298D0E9047631
:1081F800D0E906543449354802F08AFA5A463449D7
:10820800324802F085FA52463249304802F080FA84
:108218004A4631492D4802F07BFA42462F492B48FD
:1082280002F076FA3A462E49284802F071FA3246A8
:108238002C49264802F06CFA2A462B49234802F0BA
:1082480067FA22462949214802F062FA284B29494F
:108258001A681E4802F05CFA274B28491A681B481E
:1082680002F056FA264B27491A68184802F050FAC5
:10827800254B26491A68154802F04AFA244B254925
:108288001A68124802F044FA0021084600F058F92A
:108298000021012000F054F90021022000F050F9DB
:1082A8000021032000F04CF903F0CAFD012102204F
:1082B80003F092FD0121042003F08EFD942116485D
:1082C80002F000F9FEE700BF5B79010801DD000854
:1082D800717901087A790108837901088C79010894
:1082E800957901089F790108A8790108B1790108F1
:1082F80038ED00E0BB79010828ED00E0C6790108F7
:108308002CED00E0D179010830ED00E0DC790108BE
:108318003CED00E0E7790108F2790108002108B591
:10832800084600F00DF90021012000F009F90021AC
:10833800022000F005F90021032000F001F903F004
:108348007FFD0121022003F047FD0121042003F0F5
:1083580043FDA721014802F0B5F8FEE7F2790108CC
:10836800002108B5084600F0EBF80021012000F0D4
:10837800E7F80021022000F0E3F80021032000F0D4
:10838800DFF803F05DFD0121022003F025FD012146
:10839800042003F021FDBB21014802F093F8FEE719
:1083A800F2790108002108B5084600F0C9F8002153
:1083B800012000F0C5F80021022000F0C1F80021DA
:1083C800032000F0BDF803F03BFD0121022003F07B
:1083D80003FD0121042003F0FFFCCF21014802F036
:1083E80071F8FEE7F2790108704704F0E3BA00007B
:1083F80037B50F4D00246846FEF757FF2B681A590A
:10840800D26800921B5969469868FEF711FF2B68DD
:108418001B590022198A9868FEF75FFF2B681B59C1
:108428000434186AFFF7E6F9102CE4D103B030BD24
:10843800D89200202DE9F0413E4F3F4D3B788AB05D
:10844800044613B12868FFF7D3FFDFF8F0802C60EB
:1084580000242B681B5901215868FFF7A1F82B68E5
:108468001B590121D869FFF7B3F86846FEF71DFFCD
:1084780002238DF804308DF805302B681A5952699B
:108488008DF806201A59D26800921B5969469868D7
:10849800FEF7CEFE2B681B591A7E198A9868FEF7DC
:1084A8001CFF2B681A59D26A03921A590026128E99
:1084B800ADF80820ADF81060ADF80A608DF81260CC
:1084C8001B5902A9186AFFF74BFA2B68CDF81480DC
:1084D80007961A59928CADF820204FF48072ADF8A7
:1084E80024201B5905A9DA6B186A90472B681B5979
:1084F80008211A6C186A90472B681B590121986A41
:10850800FEF7EEFC2B681B590121186A0434FFF7AB
:108518001EFC102C9DD12B689B590121186A04362A
:10852800FFF767FA102EF6D101233B700AB0BDE8B9
:10853800F08100BF997E0020D892002060000100E1
:108548002DE9F0472DED028B414B1B7805460C4673
:10855800002B6ED0032804D9D8223E493E4801F0AA
:1085680079FF3E4B1A6852F8252012789A46002A5D
:1085780046D107EE104ADFED3A7ABBEEC87A67EECD
:10858800277A17EE900AFBF75FFF06460F4606F0BC
:1085980079FB2BA3D3E9002330463946B0EE408A55
:1085A800FBF7AAFF32463B46FBF7A6FF26A3D3E913
:1085B80000238046894630463946FBF79DFF0B4627
:1085C800024649464046FBF7E1FDFCF765FA07EE2F
:1085D800900AC7EE887AB7EE007AF4EE477AF1EEA1
:1085E80010FAC8BFF0EE477A9FED1E7A67EE877AD9
:1085F800FCEEE77A17EE903A9CB21B4B43F8254005
:10860800DAF8003053F825305A6B186A1B78BDEC3D
:10861800028B012B01BF45F208214C434FF6FF7333
:10862800B4FBF3F40ABF0919210A89B2BDE8F0477F
:108638001047BDEC028BBDE8F08700BFAFF30080A8
:108648009FE3480CA77144BFBA490C022B87B63F79
:10865800997E00203C7C0108557C0108D8920020B6
:108668000000704200FF7F479C7E002003282DE910
:10867800FF410446884617461E4605DD4FF48972B9
:108688001749184801F0E6FE01A8FFF7A7F9164DAB
:10869800B8F1000F18D00423144A92FBF7F292B2F3
:1086A800ADF8043002922B6853F8243001A9186AF7
:1086B800FFF756F92B6853F8243031465A6B186A7D
:1086C800904704B0BDE8F0812B6853F82420D26AA3
:1086D800029253F824301B8EADF80430E3E700BF54
:1086E8003C7C0108557C0108D89200200059000103
:1086F8002DE9F843134FDFF85480DFF85490002435
:108708003B6853F824301E78AEB958F8245039F82D
:10871800142040F2757301212846FFF7A7FF322085
:10872800FDF726F82846334632463146FFF79EFFC6
:108738009620FDF71DF80134042CE1D1024B18787E
:10874800BDE8F883D8920020997E00201C7B0108A0
:108758008E7C01087320704700B5164C164D174ED5
:1087680089B02368AB4221D09B6868469847024687
:108778000028F6D19DF801301B0956F8230080B176
:1087880002236946FDF76EFB9DF801300C4A1B0970
:1087980052F823100029E4D052F82330684698474D
:1087A800DFE7084A136801331360EDE70A20FCF796
:1087B800DFFFD6E73400002038000020F47E0020D8
:1087C800AC7E0020EC7E002000B50F4C0F4D89B028
:1087D80026462368AB4213D00D4800234FF0FF32E2
:1087E80069460068FDF7DAFC0128F2D1336868466B
:1087F8005B6898470028ECD10A20FCF7B9FFF5E739
:108808000A20FCF7B5FFE4E7340000203800002018
:10881800347F00207FB5114D2C78ECB922462021F9
:108828003C20FDF7EBFA0E4B0E4918600226234652
:108838009622CDE90244019400960B48FCF7D2FC3D
:108848002346CDE90244CDE9006496220749084849
:10885800FCF7C8FC01232B7004B070BDF07E00202B
:10886800347F0020967C0108D18700089E7C01088F
:1088780061870008014B1878704700BFF07E002020
:1088880038B5094C54F82020054622B15C22074926
:10889800074801F0DFFD002220210120FDF7AEFA94
:1088A80044F8250038BD00BFF47E0020A67C0108EE
:1088B800BD7C010870B50D4C54F8202005460E46C5
:1088C80022B96C220A490B4801F0C4FD26B96D2271
:1088D8000749094801F0BEFD314654F82500002338
:1088E8004FF0FF32BDE87040FDF758BCF47E002021
:1088F800A67C0108D47C0108D681010808B5034B81
:108908001868FDF753FDC0F13C0008BD347F002016
:108918001028DCBF014B43F820107047AC7E0020C4
:1089280010B5044620B9C3220A490B4801F092FD4C
:1089380023781E2B04D9C4220649084801F08AFD71
:108948000748002321461A460068BDE81040FDF795
:1089580089BA00BFA67C0108D6810108E37C01081A
:10896800347F002008B5064B00211868FDF706FA89
:10897800044B1B681B6903B19847002008BD00BF62
:10898800347F002034000020034B1B68DB6803B1F0
:1089980018470120704700BF3400002070B5094C0B
:1089A8002368054613B11B680020984735B1256038
:1089B800236801201B68BDE870401847024B2360FC
:1089C800F6E700BF340000203800002038B50C4C12
:1089D8004FF0FF330021054644F8203003F0FCF93E
:1089E800084B282202FB0532002352F823100131DC
:1089F80002D044F8253038BD01330A2BF5D1FAE707
:108A0800387F0020547F00202DE9F74F8146FDF77D
:108A180009FF2C4B93F80080B8F1000F4FD0C4B277
:108A2800294B53F82430581C49D00A2505FB043536
:108A3800264E274A56F8257052F823B025487B1C45
:108A480046F825300BEBC70A002319464FF0FF32D2
:108A58000068FDF7A3FBDAF80430991C1BD05A1CF8
:108A68001ED01BF83710204603F0B6F9DAF80420B8
:108A780000259AB12B46042100954846FDF782FD52
:108A8800FCF704FD00952B46024601214846FDF7F8
:108A980079FD45460AE0002246F82520154605E0FE
:108AA800204646F82530FFF791FF002509480023A6
:108AB8001A4619460068FDF7D5F9002DB0D003B065
:108AC800BDE8F08F4D7F0020387F0020547F0020C4
:108AD800207E0108507F00202DE9F3411D4D2C78A0
:108AE800ACBB03F07FF923461B491C4C4FF0FF3009
:108AF80044F82300002241F8220001320A2AFAD160
:108B08000133052B01F12801F2D1DFF86080144F01
:108B1800144E00242346CDF8008000224FF47A71C9
:108B28003846FDF707FD46F824000134052CF1D13D
:108B3800032200210120FDF761F90B4A106020B1E2
:108B480000231A461946FDF78DF901232B7002B050
:108B5800BDE8F0814C7F0020547F0020387F002042
:108B6800017D01081C800020507F0020118A000828
:108B780010B5044B1C7803F06DF9034B01221A70F1
:108B8800204010BD4C7F00204D7F0020F8B5174BCA
:108B98000546002453F82420914203D001340A2CBE
:108BA800F8D1F8BD124E002319464FF0FF32306855
:108BB800FDF7F4FA0A2202FB05420E4B002728466D
:108BC80043F82270FFF702FF3B463A4639463068C1
:108BD800FDF748F9084B53F82530A342E1D1074B7C
:108BE80053F82500BDE8F840FFF70EBF207E0108C6
:108BF800507F0020547F0020387F00201C800020F8
:108C08004160C26070470000154B70B505460024EE
:108C180053F82420914203D001340A2CF8D170BDB6
:108C2800104E002319464FF0FF323068FDF7B6FAB0
:108C38000A2303FB05440C4B4FF0FF32284643F848
:108C48002420FFF7C3FE00231A4619463068FDF7B3
:108C580009F9064B53F82500BDE87040FFF7D4BE6C
:108C6800207E0108507F0020547F00201C800020B7
:108C780008B54FF05F0383F31188BFF36F8FBFF31D
:108C88004F8F0649064801F043FD0121022003F0F9
:108C9800A3F80121042003F09FF8FEE7487E0108AD
:108CA800959000087047012070470000024B1B6830
:108CB8000BB11B681847704730800020024B1B68B7
:108CC8000BB15B681847704730800020014B186073
:108CD800704700BF308000201FB500230222009299
:108CE800CDE9023301934FF4967203490348FCF728
:108CF80079FA05B05DF804FB467F0108318E00085B
:108D080073B5274C2578002D48D10120FDF770F95F
:108D1800244B4FF0FF32294618602B46FDF73EFAE8
:108D280005F0F0F9FFF776FD00F06EF91E491F48CF
:108D38001F4D01F0EDFC1F491C4801F0E9FC1E49DC
:108D48001E4B08681E491A680E781E491E4B002ED5
:108D580008BF29461B68CDE900011C49134801F0EA
:108D6800D7FC1B4B1B4AB3F9003001931A4B1B4924
:108D78001B6800931A4B12681B680C4801F0C8FC6A
:108D88000AF01AF901F0CCF808F02AFBFFF7A4FE64
:108D980005F04CFFFFF786FF0123237002B070BD7A
:108DA80035800020DC920020B47E010895900008F0
:108DB800AE7E0108D77E0108A40100209C01002096
:108DC800FC820108A57E0108A0010020FE7E0108A2
:108DD800227AFF1F187AFF1F107AFF1F187F0108D9
:108DE800147AFF1F38B5084B1C78FFF7C1FE0546FB
:108DF80005F042FF2840044001F09EF80440FFF7C8
:108E080052FF204038BD00BF3580002008B5054816
:108E180000231A4619460068FDF724F8BDE8084003
:108E280004F0B2BFDC92002038B502F0DBFF01216C
:108E3800002002F0D1FFFFF763FF00F0A3F801F074
:108E480035F90AF099FC07F095FF07F0F3FE00F0FA
:108E580059FCFFF7C7FF04460AF05CF9044000F02C
:108E6800ABF8E4B2044001F043F904400AF0A8FC6E
:108E7800044007F09DFF044007F002FF044000F0A3
:108E880063FC044004F06AFF1F4DE8B1E4B101241B
:108E98002C70FFF7BBFF062007F0F8FE1B490420E3
:108EA800FFF774FE1A492046FFF770FEFDF7D2FD62
:108EB80018490246184801F02BFC01F045F84FF01C
:108EC800FF30FCF755FCFAE700232B70FFF78AFF09
:108ED80090B10F4C21460420FFF758FE4FF4FA607A
:108EE800FCF746FC2B78002BF4D00C490A4801F01B
:108EF8000FFCFFF78BFFD9E702F074FF0121042074
:108F080002F06AFFD2E700BF36800020107D01081A
:108F1800A87D0108617F0108959000084D7F010830
:108F280010B50B4C23787BB10A4C002319464FF03F
:108F3800FF322068FDF732F9002320681A461946E7
:108F4800BDE81040FCF78EBF0220FCF711FCE9E7F2
:108F580035800020DC920020014B1870704700BF5C
:108F68003480002008B5FCF791FA054A1368C31A43
:108F7800502B02D91060FEF7BFFA30BF08BD00BF02
:108F88003880002010B50B4C23788BB904F050FCC6
:108F980006F008F906F070F9FFF700FD00F0E0F8B8
:108FA80007F076FD00F0CEFE00F00CF901232370E7
:108FB80010BD00BF3C80002038B50B4B1C7806F074
:108FC800BDF80546FFF756FC2840044000F0D8F8E5
:108FD800044007F06DFD044000F034F8044000F050
:108FE8003BF9204038BD00BF3C80002010B5054C3F
:108FF8002046FFF795FC002301280CBF2370184674
:1090080010BD00BFE092002038B50B4D2C788CB90C
:109018000A4B0322214601201C705C70FCF7EEFE0F
:10902800074A106020B1234622462146FCF71AFF62
:1090380001232B7038BD00BF3D800020E092002046
:1090480040800020014B1878704700BF3D80002009
:1090580037B50C4C054601AA00212068FDF75EF9DA
:1090680001280CD1084A206813781D2B9EBFD118FF
:1090780001338D7001A998BF1370FDF73DF828469C
:1090880003B030BD40800020E0920020F8B5214AAE
:10909800214B12785B680646002A38D0C3F30803D0
:1090A8001BB1BDE8F840FFF7D3BF1C4D4FF0FF32AE
:1090B80019462868FDF772F8012826D1184C23783C
:1090C8001D2B13D9FFF71AFC01280CD1217815485C
:1090D80000235A18002A06DDC71822443F799770E2
:1090E800013B5A1DF5D1FFF781FF08E0E218013373
:1090F800DBB20A2E96702370E4D01E2BE2D0002338
:109108001A4619462868FCF7ADFEF0B2F8BD1046BD
:10911800FCE700BF3D80002000ED00E0408000201B
:10912800E09200207B7F010810B5437813F0030319
:1091380004460ED0012B00D010BD03461E2203F8B2
:10914800022B002118460DF0E3FF04490DF0E8FF5B
:109158002046BDE81040FFF7E3BB00BF807F010851
:1091680010B5054C23782BB904490F20FFF7D0FB25
:109178000123237010BD00BF4480002031910008F6
:10918800014B1878704700BF4480002070B50B4B26
:1091980019680B4B00221C680C251346994203DC06
:1091A8004FF0FF33184670BD05FB03F6A657002E97
:1091B80002DB8242F6D001320133EFE7548000200F
:1091C80048800020F0B51A4C257885B01DBB194899
:1091D80019491A4B1A4F1B4E091A8A1053433B6000
:1091E800306001F0A3FA184B36681860174B3868DE
:1091F80019682A460C2790420FDC05B11960002334
:109208000125CDE9023301930095962210491148B2
:10921800FBF7E8FF257005B0F0BD07FB02FC013243
:1092280016F90CC0BCF1000FA4BF01310125E2E71B
:1092380045800020F4A8010848AF0108ABAAAAAAF3
:109248005480002048800020508000204C8000205E
:10925800937F01088D930008014B1878704700BF71
:10926800458000202DE9F047034618B101282DD08C
:10927800BDE8F087394A3A4F3A4CD2F800C03A4E26
:109288003A68E078043219464FF00C0EB246614550
:1092980007DB202363700023A37001232370314868
:1092A80057E012F8045C15F0800F0EFB01F8A2F1EC
:1092B800040905D0ED0707D5166801310C32E6E739
:1092C800984210D00133F8E75646F6E725488370F0
:1092D800264B1B68C370264B202242701B684360D4
:1092E8000622027035E0202363700023E070A3702B
:1092F80099F8003023713046FBF7EEFE0546D9F8A1
:109308000400FBF7E9FE28440530C0B21E2820708F
:1093180004D9C7221749184801F09CF83046FBF7D2
:10932800DBFE3146421C15480DF0E7FE3046FBF7E0
:10933800D3FE3B6898440446D8F804502846FBF707
:10934800CBFE231D0E4C421C2946E0180DF0D5FE1D
:10935800A01EBDE8F047FFF7E3BA00BF5480002025
:10936800488000200093002049A001084C8000207C
:1093780050800020997F0108B17F010805930020E3
:10938800029300202DE9F74F0220FFF779FA7B4C72
:10939800DFF8F89179490220FFF78CFA6678A5780A
:1093A80016F0030603D12846FFF75CFFF2E7012E0B
:1093B80032D12846FFF7EAFE002806DAFF23A37019
:1093C8000223E5702371032311E00C2358436C4BEF
:1093D8001A681318125C9B6802F00302022A0FD065
:1093E800032A12D0012A07D01B78E37002232370C6
:1093F8002046FFF795FACDE71B88A4F80330E2E78B
:109408001B68C4F803300523F1E75E491A680A604F
:109418005A684A600923EAE7022E2AD12846FFF74C
:10942800B5FE002804DAFF23A370E5702671CAE7A9
:109438000C235843524B1B681A181B5C5906A9D4B5
:1094480003F00303022B926809D0032B0BD0012BE6
:1094580015BFE378B4F8033013701380C8E7D4F865
:1094680003301360C4E7474B19685B68C2E900130F
:10947800BEE7002D8ED12B46E218927802B901354D
:1094880001331E2BF8D1012D74DD3E48FBF724FE75
:10949800061D264405463046FBF71EFE3A4B009053
:1094A8001B680193364B1F68CA464FF0000B019B9F
:1094B8009B4515DB02253348FBF70EFE0746304671
:1094C800FBF70AFE274407442E487D71FBF704FE8C
:1094D80005463046FBF700FE28440430207087E735
:1094E80097F8008018F0800F08D018F0010F1AD0F4
:1094F800D7F804A00BF1010B0C37D8E73146786890
:10950800FBF7E0FD0028F5D11E495046FBF7DAFDD0
:109518000028EFD1009B2B449A46E3185B7943451A
:1095280003D01625C7E7CA46E4E713F040051FD164
:1095380003F003030AF10402022B0AF1060A04EB02
:109548000A00B9680BD0032B0DD0012B17BFA31845
:1095580034F80A309B780B7008BF0B80ABE754F8DF
:109568000A300B60A7E7D0E90023C1E90023A2E78E
:109578000D25A0E703B0BDE8F08F00BF00930020E1
:1095880048800020039300205480002049A001084F
:1095980080B50420544C554FFFF772F904F10806C2
:1095A80051490420FFF786F9637803F00303012B80
:1095B80059D017D3022BF3D12278D4F80350A078CE
:1095C800053A4221D2B261705119002879D1B1F51A
:1095D800005F72D2A9B2464804F02EF800286CD079
:1095E80000236BE0A378012B15D0022BD8D1E078AB
:1095F800237040226270A370D0B9207141F6FF73C6
:109608003C493D4AC4F805300B6813604B68536009
:109618000F23237008E0A370384B40221B78627038
:10962800022213442270E3702046FFF779F9B7E766
:10963800012803D1102323711823E1E7304D0238A4
:109648002946C0B205F0BEFE0028EDD001237022E5
:1096580029492371C4F8052023782A680A606A68B2
:109668004A600D33D5E7E579D4F80310A078412393
:1096780063706B1868B9B3F5005F1ED22A4689B2C9
:10968800304603F0C1FFC0B100230635E3712570F1
:10969800CAE7012807D1182B0FD82A463944304683
:1096A8000DF02BFDEFE7702B07D8023833462A461A
:1096B80089B2C0B205F0B0FEE5E70523E3710623E1
:1096C800A7E7012806D118298AD8094978190DF081
:1096D80014FD85E77029F0D80238054BA9B2C0B24D
:1096E80005F000FF7AE700BF5A80002094B30020FD
:1096F80061800020CE7F010863800020598000200F
:109708007A8000201FB50C4C237883B90B4805F0EC
:1097180039FE70B101232370002301220092CDE9A4
:1097280002330193962206490648FBF75BFD04B015
:1097380010BD2070F0E700BF58800020598000203D
:10974800D67F010899950008014B1878704700BF2B
:10975800588000201C4B2DE9F34100250C211F46A1
:1097680001FB05F2D458844229D00135082DF7D1E0
:10977800022002B0BDE8F0812268A3601446002CE4
:10978800FAD10C2606FB0576706888B14FF0FF38D1
:10979800234622460321CDF80080FCF7F3FECDF8DE
:1097A80000802346224605217068FCF7EBFE7460B2
:1097B8000C235D434FF0FF337B510020D9E713445E
:1097C8009C680023DBE700BF848000200D4B37B581
:1097D80000220C2404FB02F1CD58854205D0013249
:1097E800082AF7D1022003B030BD58184FF0FF33D4
:1097F800009300231A4603214068FCF7C3FE0020AB
:10980800F1E700BF84800020F8B5134B134C1B7898
:1098180073B100250C2707FB05F6A059431C04D09B
:10982800FFF7D4FFA059FFF795FF0135082DF2D1B6
:109838004FF0FF332360E360A36163622363E36354
:10984800A3646365064800231946C2180C33B3F5B0
:10985800407F9160F9D1F8BD82800020848000208B
:10986800E880002008B5FCF7DDFFBDE808400146A8
:10987800014800F07FBB00BF1D9C00082DE9F04F98
:1098880085B0444C039100230C2101FB03F21559C8
:1098980085426CD00133082BF7D1022005B0BDE812
:1098A800F08F009B9D6800202B46A3B918F8127012
:1098B80007F00F0156001BF8011001441A2908EBA4
:1098C800060952DC0CFB03E0816859B10133402BD7
:1098D800F8D10C20E2E719791B6809091BF8011077
:1098E8000844E2E799F801A0BAF1FF0F2BD0019ED6
:1098F8008946029CA145D0DA96F90040002C02DB8B
:109908008A4504D0013109F101090C36F1E70CFB55
:1099180003E9B168C9F80810367899F8041066F3B5
:10992800030167F3071189F804100CFB03F3002106
:109938004EF80310A5B9009B98600132039B9A4228
:10994800AFDB0020AAE702364644017986603E096B
:1099580066F3030167F3071101710232E5E71D465B
:109968002B68002BFBD12860E7E7072096E7A318B0
:109978000093094BDFF828B01B680293074BDFF808
:1099880024801B6801930022DFF81CE04FF00C0CC8
:10999800D4E700BF84800020F4830020E8830020FF
:1099A8000D800108FC830020E88000202DE987480D
:1099B8000520FEF765FF894CDFF83CA287490520A2
:1099C800FEF778FF002319464FF0FF32DAF800005F
:1099D800FCF7E4FB63789B0703D1A3787BB1012BE9
:1099E80021D0637803F00303012B60D1A378052B02
:1099F80000F29080DFE803F03A6B7074878B784A46
:109A0800E078D2F800C0774A774D1268DFF800E2B4
:109A180004321946614516DB502363700023A37096
:109A2800012323700DE0A370704B1B68E370704B2B
:109A380050221B68627063600822402322702272E1
:109A48006372204696E012F8047C17F0800FA2F1AA
:109A5800040605D0FD0707D5156801310C32D9E792
:109A680098425BD00133F8E77546F6E7614F94F802
:109A7800038000230C223D4602FB03F1C9598845A7
:109A88004AD00133082BF7D100230C2202FB03F63E
:109A980055F806B0BBF1FF3F6FD00133082BF5D165
:109AA8000C250323204625712370FEF739FF524801
:109AB80000231A4619460068FCF7D4F97EE7A9F195
:109AC800020149084046FFF7D9FE0546E9E7217833
